:100000000C942A000C9447000C9447000C94470071
:100010000C9447000C9447000C9447000C94DA03AE
:100020000C9447000C9403040C9447000C94470074
:100030000C9447000C9447000C9447000C94470024
:100040000C9447000C9447000C9447000C94470014
:100050000C94470011241FBECFE5D8E0DEBFCDBF12
:1000600011E0A0E6B0E0EAE7FBE002C005900D92E7
:10007000A230B107D9F711E0A2E0B1E001C01D92B2
:10008000A730B107E1F70E94A0020C94BB050C94C5
:100090000000813029F1813038F0823009F43CC011
:1000A000833009F06EC053C0442361F42AB381E069
:1000B00090E002C0880F991F6A95E2F7809582232D
:1000C0008ABB0895413009F05CC02AB381E090E01A
:1000D00002C0880F991F6A95E2F7282B2ABB089562
:1000E000442361F427B381E090E002C0880F991F98
:1000F0006A95E2F78095822387BB0895413009F025
:1001000040C027B381E090E002C0880F991F6A9534
:10011000E2F7282B27BB0895442361F424B381E040
:1001200090E002C0880F991F6A95E2F780958223BC
:1001300084BB0895413029F524B381E090E002C0EA
:10014000880F991F6A95E2F7282B24BB0895442352
:1001500061F421B381E090E002C0880F991F6A9595
:10016000E2F78095822381BB0895413051F421B399
:1001700081E090E002C0880F991F6A95E2F7282B72
:1001800021BB0895813029F1813038F0823009F4A3
:100190003CC0833009F06EC053C0442361F42BB3DC
:1001A00081E090E002C0880F991F6A95E2F7809580
:1001B00082238BBB0895413009F05CC02BB381E0F2
:1001C00090E002C0880F991F6A95E2F7282B2BBB9D
:1001D0000895442361F428B381E090E002C0880FC1
:1001E000991F6A95E2F78095822388BB0895413074
:1001F00009F040C028B381E090E002C0880F991F49
:100200006A95E2F7282B28BB0895442361F425B3AF
:1002100081E090E002C0880F991F6A95E2F780950F
:10022000822385BB0895413029F525B381E090E014
:1002300002C0880F991F6A95E2F7282B25BB089505
:10024000442361F422B381E090E002C0880F991F3B
:100250006A95E2F78095822382BB0895413051F47C
:1002600022B381E090E002C0880F991F6A95E2F7FF
:10027000282B22BB0895813051F0813030F082303C
:1002800041F08330C1F080E0089529B303C026B364
:1002900001C023B381E090E0062E02C0880F991FB1
:1002A0000A94E2F730E08223932302C09595879564
:1002B0006A95E2F7089520B381E090E0062E02C02F
:1002C000880F991F0A94E2F730E08223932302C03B
:1002D000959587956A95E2F70895813049F08130C8
:1002E00028F0823039F0833041F406C06ABB0895AB
:1002F00067BB089564BB089561BB0895813049F0E0
:10030000813028F0823039F0833041F406C06BBB75
:10031000089568BB089565BB089562BB0895813058
:1003200051F0813030F0823041F0833041F080E094
:10033000089589B3089586B3089583B3089580B36B
:100340000895809102018F5F80930201089587EFE5
:1003500090E00E942C04109202010E94A10380E60A
:1003600090E060E003C080E790E061E040E00E9440
:10037000B103809102018230B0F3109202010E9419
:10038000A10383E790E060E003C080E790E061E0D4
:1003900040E00E94B103809102018823B1F31092E2
:1003A00002010E94A10388E790E060E003C080E7BB
:1003B00090E061E040E00E94B10380910201823050
:1003C000B0F30E9447040895CF92DF92FF920F93FB
:1003D0001F93CF93DF93EC01FF2489E1C82ED12C2A
:1003E00088EB9BE0F6013197F1F70197D9F70F2DD4
:1003F00010E00E945404982FFE01E00FF11F80834B
:100400008D3061F08091F600813011F48AE202C0F3
:10041000892F805D0E942D03F394E2CF1182DF913A
:10042000CF911F910F91FF90DF90CF9008950F9380
:100430001F93DF93CF93CDB7DEB727970FB6F8940E
:10044000DEBF0FBECDBF0E94A10388E890E060E050
:1004500040E00E94B10388E990E061E040E00E9442
:10046000B10381E065E00E94A5038E010F5F1F4F7D
:10047000C8010E94E401C8010E9430050E942C05B9
:10048000805327960FB6F894DEBF0FBECDBFCF9135
:10049000DF911F910F910895EF92FF920F931F9399
:1004A000DF93CF93CDB7DEB72E970FB6F894DEBFAC
:1004B0000FBECDBF1092F60098E0E92EF12CEC0EA5
:1004C000FD1E8E010F5F1F4F0E94A1038FE990E078
:1004D0000E944C0381E060E00E94A503C7010E94D6
:1004E000E401C7010E9430050E94A10381EB90E066
:1004F00060E040E00E94B10386EC90E061E040E003
:100500000E94B10381E06AE00E94A503C8010E9435
:10051000E401C8010E9430050E942C058133A1F638
:1005200081E08093F6002E960FB6F894DEBF0FBEE2
:10053000CDBFCF91DF911F910F91FF90EF90089564
:100540000F931F93DF93CF93CDB7DEB72C970FB6E2
:10055000F894DEBF0FBECDBFDE011196EDEFF0E0E7
:1005600085E001900D928150E1F70E94BE03CE011B
:1005700001960E94000581EA91E090930401809326
:1005800003010E944F0483E060E040E00E944900C4
:1005900083E061E041E00E9449000E944C028FB775
:1005A00080688FBF8E010A5F1F4F0E94A10382EDFA
:1005B00090E060E040E00E94B10380EE90E061E0F6
:1005C00040E00E94B1030E9454048B3209F581E09F
:1005D0000E942805C8010E941702813019F40E9468
:1005E000A701E3CF8830B1F787EF90E00E942C0499
:1005F000109202010E94A10306C080EF90E060E02B
:1006000040E00E94B103809102018230B0F322C029
:100610008D3259F680E00E942805C8010E94170219
:10062000813019F40E944C02C0CF8830B1F70E948B
:10063000A10387EF90E00E942C041092020106C0F3
:1006400080EF90E060E040E00E94B1038091020101
:100650008230B0F30E944704A8CF1F93182F83E085
:1006600066E041E00E94C2008AEF90E00197F1F756
:1006700082E0612F0E947E0183E067E041E00E94FA
:10068000C20084EF91E00197F1F783E067E040E07A
:100690000E94C2001F9108951F93CF93DF93EC0136
:1006A00010E003C00E942D031F5FFE01E10FF11D4A
:1006B00080818823B9F7DF91CF911F9108950F931F
:1006C0001F93DF93CF93CDB7DEB760970FB6F89443
:1006D000DEBF0FBECDBF90E08E010F5F1F4FB80190
:1006E0004AE050E00E947605C8010E944C036096E3
:1006F0000FB6F894DEBF0FBECDBFCF91DF911F9133
:100700000F9108951F93182F83E066E040E00E9448
:10071000C2008AEF90E00197F1F782E0612F0E941A
:100720007E0183E067E041E00E94C20084EF91E037
:100730000197F1F783E067E040E00E94C2001F915B
:10074000089581E00E9482030895603108F060E01E
:10075000823008F48111605C862F80680E948203D9
:1007600008950F931F938C01862F642F0E94A50379
:10077000C8010E944C031F910F91089580E197E2F8
:100780000197F1F783E067E041E00E94490083E0D0
:1007900066E041E00E94490082E06FEF0E946D0137
:1007A00088E30E9482038CE00E94820381E00E9421
:1007B000820308951F920F920FB60F9211242F9368
:1007C0003F934F935F936F937F938F939F93AF93D9
:1007D000BF93EF93FF93E0910501F09106013097ED
:1007E00009F00995FF91EF91BF91AF919F918F9182
:1007F0007F916F915F914F913F912F910F900FBE1D
:100800000F901F9018951F920F920FB60F92112400
:100810002F933F934F935F936F937F938F939F9308
:10082000AF93BF93EF93FF93E0910501F091060121
:10083000309709F00995FF91EF91BF91AF919F918A
:100840008F917F916F915F914F913F912F910F9079
:100850000FBE0F901F901895FC018CE08FBD8EB5D8
:10086000887F9481892B8EBD808191819DBD8CBDB7
:100870008581813049F48EB588608EBD82819381F7
:100880009BBD8ABD80E101C084E089BF08951FBC83
:100890001EBC1DBC1CBC1BBC1ABC19BE0895909389
:1008A0000601809305010895FF920F931F9380E046
:1008B00060E041E00E94490080E061E041E00E9488
:1008C000490080E062E041E00E94490080E063E08E
:1008D00041E00E94490080E060E041E00E94C200E7
:1008E00080E061E041E00E94C20080E062E041E01F
:1008F0000E94C20080E063E041E00E94C20080E00C
:1009000064E040E00E94490080E065E040E00E9431
:10091000490080E066E040E00E94490080E067E036
:1009200040E00E94490069C0F02E80E0602F40E066
:100930000E94C20010E01C5F80E0612F0E943B011A
:100940001350882309F04DC06F2D41E00E94C20072
:100950008F2D880F880F810F883081F1893080F4C6
:10096000843021F1853038F48230D1F08330E0F4E6
:10097000813099F517C08630E9F08730E8F418C067
:100980008C3021F18D3028F48A30E1F08B30E0F4A6
:1009900017C08F30F9F08031F9F08E30F1F418C0C3
:1009A00088E01BC087E019C089E017C085E215C048
:1009B00084E013C085E011C086E00FC08AE20DC05C
:1009C00081E00BC082E009C083E007C08DE205C072
:1009D00080E303C08DE301C08BE21F910F91FF9074
:1009E0000895143009F0A7CF80E0602F41E00E9405
:1009F000C2000F5F043008F497CF00E0FF2495CFCA
:100A0000FC0182E08BB988E18AB99081990F8181DC
:100A10008295807F892B80689281990F990F990F19
:100A2000982B90BD2381348140E050E083E0220F79
:100A3000331F441F551F8A95D1F760E472E48FE09D
:100A400090E00E9454052150304030BD29B90895EE
:100A50005D9BFECF8CB908955F9BFECF8CB108954E
:100A600020E004C05D9BFECFECB92F5FFC01E20FDC
:100A7000F11DE081EE23B1F70895DC015F9BFECF0D
:100A80008CB18C9390E008C09F5F5F9BFECF8CB1D0
:100A9000FD01E90FF11D8083FD01E90FF11D80814A
:100AA0008D3091F710820895A1E21A2EAA1BBB1B6C
:100AB000FD010DC0AA1FBB1FEE1FFF1FA217B3072A
:100AC000E407F50720F0A21BB30BE40BF50B661F40
:100AD000771F881F991F1A9469F760957095809504
:100AE00090959B01AC01BD01CF010895FB019F01D1
:100AF000E8944230C4F04532B4F44A3029F497FB0C
:100B00001EF4909581959F4F642F77270E94A7052B
:100B1000805D8A330CF0895D8193CB010097A1F74A
:100B200016F45DE251931082C9010C949705DC0123
:100B3000FC01672F71917723E1F7329704C07C9114
:100B40006D9370836291AE17BF07C8F30895AA1B17
:100B5000BB1B51E107C0AA1FBB1FA617B70710F0A8
:100B6000A61BB70B881F991F5A95A9F780959095DA
:0A0B7000BC01CD010895F894FFCFF9
:100B7A00446F6F72204973204F70656E696E67000B
:100B8A00202000484F4C4400446F6F722049732064
:100B9A00436C6F73696E6700506C7A20456E74659A
:100BAA007220596F75722000506173733A20005099
:100BBA006C7A20456E7465722050617373203A20F6
:100BCA0000506C656173652052652D656E7465729F
:100BDA0020546865200053616D6520506173733A33
:100BEA0020002B203A204F70656E20446F6F7200F0
:100BFA002D203A204368616E676520506173730047
:100C0A004552524F5200010000720B0501030000C9
:020C1A00802533
:00000001FF
